05:17:29.224102 IP 570c0a71c969.50770 > traefik-mysql-proxy_mysql_1.traefik-mysql-proxy_traefik.3306: Flags [P.], seq 4144502038:4144502068, ack 2476051942, win 501, options [nop,nop,TS val 3923858231 ecr 3442788156], length 30
	0x0000:  4500 0052 5145 4000 4006 8d7b acf0 0102
	0x0010:  acf0 0103 c652 0cea f708 1516 9395 8de6
	0x0020:  8018 01f5 5c2a 0000 0101 080a e9e1 5337
	0x0030:  cd34 c73c 1a00 0000 0373 656c 6563 7420
	0x0040:  2a20 6672 6f6d 2061 646d 696e 2e75 7365
	0x0050:  7273
05:17:29.225055 IP traefik-mysql-proxy_mysql_1.traefik-mysql-proxy_traefik.3306 > 570c0a71c969.50770: Flags [P.], seq 1:944, ack 30, win 509, options [nop,nop,TS val 3442864549 ecr 3923858231], length 943
	0x0000:  4500 03e3 aef0 4000 4006 2c3f acf0 0103
	0x0010:  acf0 0102 0cea c652 9395 8de6 f708 1534
	0x0020:  8018 01fd 5fbb 0000 0101 080a cd35 f1a5
	0x0030:  e9e1 5337 0100 0001 0329 0000 0203 6465
	0x0040:  6605 6164 6d69 6e05 7573 6572 7305 7573
	0x0050:  6572 7302 6964 0269 640c 3f00 0b00 0000
	0x0060:  0303 4200 0000 2d00 0003 0364 6566 0561
	0x0070:  646d 696e 0575 7365 7273 0575 7365 7273
	0x0080:  046e 616d 6504 6e61 6d65 0c21 002c 0100
	0x0090:  00fd 0000 0000 002f 0000 0403 6465 6605
	0x00a0:  6164 6d69 6e05 7573 6572 7305 7573 6572
	0x00b0:  7305 656d 6169 6c05 656d 6169 6c0c 2100
	0x00c0:  2c01 0000 fd00 0000 0000 1600 0005 0233
	0x00d0:  3504 6c75 697a 0d6c 7569 7a40 7465 7374
	0x00e0:  2e63 6f6d 0e00 0006 0233 3604 6c75 697a
	0x00f0:  0565 6d61 696c 0e00 0007 0233 3704 6c75
	0x0100:  697a 0565 6d61 696c 0e00 0008 0233 3804
	0x0110:  6c75 697a 0565 6d61 696c 0e00 0009 0233
	0x0120:  3904 6c75 697a 0565 6d61 696c 0e00 000a
	0x0130:  0234 3004 6c75 697a 0565 6d61 696c 0e00
	0x0140:  000b 0234 3104 6c75 697a 0565 6d61 696c
	0x0150:  0e00 000c 0234 3204 6c75 697a 0565 6d61
	0x0160:  696c 0e00 000d 0234 3304 6c75 697a 0565
	0x0170:  6d61 696c 0e00 000e 0234 3404 6c75 697a
	0x0180:  0565 6d61 696c 0e00 000f 0234 3504 6c75
	0x0190:  697a 0565 6d61 696c 0e00 0010 0234 3604
	0x01a0:  6c75 697a 0565 6d61 696c 0e00 0011 0234
	0x01b0:  3704 6c75 697a 0565 6d61 696c 0e00 0012
	0x01c0:  0234 3804 6c75 697a 0565 6d61 696c 0e00
	0x01d0:  0013 0234 3904 6c75 697a 0565 6d61 696c
	0x01e0:  0e00 0014 0235 3004 6c75 697a 0565 6d61
	0x01f0:  696c 0e00 0015 0235 3104 6c75 697a 0565
	0x0200:  6d61 696c 0e00 0016 0235 3204 6c75 697a
	0x0210:  0565 6d61 696c 0e00 0017 0235 3304 6c75
	0x0220:  697a 0565 6d61 696c 0e00 0018 0235 3404
	0x0230:  6c75 697a 0565 6d61 696c 0e00 0019 0235
	0x0240:  3504 6c75 697a 0565 6d61 696c 0e00 001a
	0x0250:  0235 3604 6c75 697a 0565 6d61 696c 0e00
	0x0260:  001b 0235 3704 6c75 697a 0565 6d61 696c
	0x0270:  0e00 001c 0235 3804 6c75 697a 0565 6d61
	0x0280:  696c 0e00 001d 0235 3904 6c75 697a 0565
	0x0290:  6d61 696c 0e00 001e 0236 3004 6c75 697a
	0x02a0:  0565 6d61 696c 0e00 001f 0236 3104 6c75
	0x02b0:  697a 0565 6d61 696c 0e00 0020 0236 3204
	0x02c0:  6c75 697a 0565 6d61 696c 0e00 0021 0236
	0x02d0:  3304 6c75 697a 0565 6d61 696c 0e00 0022
	0x02e0:  0236 3404 6c75 697a 0565 6d61 696c 0e00
	0x02f0:  0023 0236 3504 6c75 697a 0565 6d61 696c
	0x0300:  0e00 0024 0236 3604 6c75 697a 0565 6d61
	0x0310:  696c 0e00 0025 0236 3704 6c75 697a 0565
	0x0320:  6d61 696c 0e00 0026 0236 3804 6c75 697a
	0x0330:  0565 6d61 696c 0e00 0027 0236 3904 6c75
	0x0340:  697a 0565 6d61 696c 0e00 0028 0237 3004
	0x0350:  6c75 697a 0565 6d61 696c 0e00 0029 0237
	0x0360:  3104 6c75 697a 0565 6d61 696c 0e00 002a
	0x0370:  0237 3204 6c75 697a 0565 6d61 696c 0e00
	0x0380:  002b 0237 3304 6c75 697a 0565 6d61 696c
	0x0390:  0e00 002c 0237 3404 6c75 697a 0565 6d61
	0x03a0:  696c 0e00 002d 0237 3504 6c75 697a 0565
	0x03b0:  6d61 696c 0e00 002e 0237 3604 6c75 697a
	0x03c0:  0565 6d61 696c 0e00 002f 0237 3704 6c75
	0x03d0:  697a 0565 6d61 696c 0700 0030 fe00 0022
	0x03e0:  0000 00
05:17:29.225094 IP 570c0a71c969.50770 > traefik-mysql-proxy_mysql_1.traefik-mysql-proxy_traefik.3306: Flags [.], ack 944, win 501, options [nop,nop,TS val 3923858232 ecr 3442864549], length 0
	0x0000:  4500 0034 5146 4000 4006 8d98 acf0 0102
	0x0010:  acf0 0103 c652 0cea f708 1534 9395 9195
	0x0020:  8010 01f5 5c0c 0000 0101 080a e9e1 5338
	0x0030:  cd35 f1a5
